{
	"_format": "hh-sol-artifact-1",
	"contractName": "EpicNFT",
	"sourceName": "contracts/EpicNFT.sol",
	"abi": [
		{
			"inputs": [],
			"stateMutability": "payable",
			"type": "constructor"
		},
		{
			"anonymous": false,
			"inputs": [
				{
					"indexed": true,
					"internalType": "address",
					"name": "owner",
					"type": "address"
				},
				{
					"indexed": true,
					"internalType": "address",
					"name": "approved",
					"type": "address"
				},
				{
					"indexed": true,
					"internalType": "uint256",
					"name": "tokenId",
					"type": "uint256"
				}
			],
			"name": "Approval",
			"type": "event"
		},
		{
			"anonymous": false,
			"inputs": [
				{
					"indexed": true,
					"internalType": "address",
					"name": "owner",
					"type": "address"
				},
				{
					"indexed": true,
					"internalType": "address",
					"name": "operator",
					"type": "address"
				},
				{
					"indexed": false,
					"internalType": "bool",
					"name": "approved",
					"type": "bool"
				}
			],
			"name": "ApprovalForAll",
			"type": "event"
		},
		{
			"anonymous": false,
			"inputs": [
				{
					"indexed": false,
					"internalType": "address",
					"name": "sender",
					"type": "address"
				},
				{
					"indexed": false,
					"internalType": "uint256",
					"name": "tokenID",
					"type": "uint256"
				}
			],
			"name": "NewEpicNFTMinted",
			"type": "event"
		},
		{
			"anonymous": false,
			"inputs": [
				{
					"indexed": true,
					"internalType": "address",
					"name": "from",
					"type": "address"
				},
				{
					"indexed": true,
					"internalType": "address",
					"name": "to",
					"type": "address"
				},
				{
					"indexed": true,
					"internalType": "uint256",
					"name": "tokenId",
					"type": "uint256"
				}
			],
			"name": "Transfer",
			"type": "event"
		},
		{
			"inputs": [
				{
					"internalType": "address",
					"name": "to",
					"type": "address"
				},
				{
					"internalType": "uint256",
					"name": "tokenId",
					"type": "uint256"
				}
			],
			"name": "approve",
			"outputs": [],
			"stateMutability": "nonpayable",
			"type": "function"
		},
		{
			"inputs": [
				{
					"internalType": "address",
					"name": "owner",
					"type": "address"
				}
			],
			"name": "balanceOf",
			"outputs": [
				{
					"internalType": "uint256",
					"name": "",
					"type": "uint256"
				}
			],
			"stateMutability": "view",
			"type": "function"
		},
		{
			"inputs": [
				{
					"internalType": "uint256",
					"name": "tokenId",
					"type": "uint256"
				}
			],
			"name": "getApproved",
			"outputs": [
				{
					"internalType": "address",
					"name": "",
					"type": "address"
				}
			],
			"stateMutability": "view",
			"type": "function"
		},
		{
			"inputs": [
				{
					"internalType": "address",
					"name": "owner",
					"type": "address"
				},
				{
					"internalType": "address",
					"name": "operator",
					"type": "address"
				}
			],
			"name": "isApprovedForAll",
			"outputs": [
				{
					"internalType": "bool",
					"name": "",
					"type": "bool"
				}
			],
			"stateMutability": "view",
			"type": "function"
		},
		{
			"inputs": [],
			"name": "makeAnEpicNFT",
			"outputs": [],
			"stateMutability": "nonpayable",
			"type": "function"
		},
		{
			"inputs": [],
			"name": "name",
			"outputs": [
				{
					"internalType": "string",
					"name": "",
					"type": "string"
				}
			],
			"stateMutability": "view",
			"type": "function"
		},
		{
			"inputs": [
				{
					"internalType": "uint256",
					"name": "tokenId",
					"type": "uint256"
				}
			],
			"name": "ownerOf",
			"outputs": [
				{
					"internalType": "address",
					"name": "",
					"type": "address"
				}
			],
			"stateMutability": "view",
			"type": "function"
		},
		{
			"inputs": [
				{
					"internalType": "uint256",
					"name": "tokenID",
					"type": "uint256"
				}
			],
			"name": "pickRandomColor",
			"outputs": [
				{
					"internalType": "string",
					"name": "",
					"type": "string"
				}
			],
			"stateMutability": "view",
			"type": "function"
		},
		{
			"inputs": [
				{
					"internalType": "uint256",
					"name": "tokenID",
					"type": "uint256"
				}
			],
			"name": "pickRandomFirstWord",
			"outputs": [
				{
					"internalType": "string",
					"name": "",
					"type": "string"
				}
			],
			"stateMutability": "view",
			"type": "function"
		},
		{
			"inputs": [
				{
					"internalType": "uint256",
					"name": "tokenID",
					"type": "uint256"
				}
			],
			"name": "pickRandomSecondWord",
			"outputs": [
				{
					"internalType": "string",
					"name": "",
					"type": "string"
				}
			],
			"stateMutability": "view",
			"type": "function"
		},
		{
			"inputs": [
				{
					"internalType": "uint256",
					"name": "tokenID",
					"type": "uint256"
				}
			],
			"name": "pickRandomThirdWord",
			"outputs": [
				{
					"internalType": "string",
					"name": "",
					"type": "string"
				}
			],
			"stateMutability": "view",
			"type": "function"
		},
		{
			"inputs": [
				{
					"internalType": "address",
					"name": "from",
					"type": "address"
				},
				{
					"internalType": "address",
					"name": "to",
					"type": "address"
				},
				{
					"internalType": "uint256",
					"name": "tokenId",
					"type": "uint256"
				}
			],
			"name": "safeTransferFrom",
			"outputs": [],
			"stateMutability": "nonpayable",
			"type": "function"
		},
		{
			"inputs": [
				{
					"internalType": "address",
					"name": "from",
					"type": "address"
				},
				{
					"internalType": "address",
					"name": "to",
					"type": "address"
				},
				{
					"internalType": "uint256",
					"name": "tokenId",
					"type": "uint256"
				},
				{
					"internalType": "bytes",
					"name": "_data",
					"type": "bytes"
				}
			],
			"name": "safeTransferFrom",
			"outputs": [],
			"stateMutability": "nonpayable",
			"type": "function"
		},
		{
			"inputs": [
				{
					"internalType": "address",
					"name": "operator",
					"type": "address"
				},
				{
					"internalType": "bool",
					"name": "approved",
					"type": "bool"
				}
			],
			"name": "setApprovalForAll",
			"outputs": [],
			"stateMutability": "nonpayable",
			"type": "function"
		},
		{
			"inputs": [
				{
					"internalType": "bytes4",
					"name": "interfaceId",
					"type": "bytes4"
				}
			],
			"name": "supportsInterface",
			"outputs": [
				{
					"internalType": "bool",
					"name": "",
					"type": "bool"
				}
			],
			"stateMutability": "view",
			"type": "function"
		},
		{
			"inputs": [],
			"name": "symbol",
			"outputs": [
				{
					"internalType": "string",
					"name": "",
					"type": "string"
				}
			],
			"stateMutability": "view",
			"type": "function"
		},
		{
			"inputs": [
				{
					"internalType": "uint256",
					"name": "tokenId",
					"type": "uint256"
				}
			],
			"name": "tokenURI",
			"outputs": [
				{
					"internalType": "string",
					"name": "",
					"type": "string"
				}
			],
			"stateMutability": "view",
			"type": "function"
		},
		{
			"inputs": [
				{
					"internalType": "address",
					"name": "from",
					"type": "address"
				},
				{
					"internalType": "address",
					"name": "to",
					"type": "address"
				},
				{
					"internalType": "uint256",
					"name": "tokenId",
					"type": "uint256"
				}
			],
			"name": "transferFrom",
			"outputs": [],
			"stateMutability": "nonpayable",
			"type": "function"
		}
	],
	"bytecode": "0x608060405260405180610100016040528060d381526020016200486460d3913960089080519060200190620000369291906200085b565b50604051806080016040528060568152602001620049376056913960099080519060200190620000689291906200085b565b506040518061010001604052806040518060400160405280600581526020017f48756d616e00000000000000000000000000000000000000000000000000000081525081526020016040518060400160405280600381526020017f456c66000000000000000000000000000000000000000000000000000000000081525081526020016040518060400160405280600581526020017f447761726600000000000000000000000000000000000000000000000000000081525081526020016040518060400160405280600481526020017f4d6167650000000000000000000000000000000000000000000000000000000081525081526020016040518060400160405280600781526020017f576974636865720000000000000000000000000000000000000000000000000081525081526020016040518060400160405280600581526020017f456c64657200000000000000000000000000000000000000000000000000000081525081526020016040518060400160405280600681526020017f57697a617264000000000000000000000000000000000000000000000000000081525081526020016040518060400160405280600581526020017f4472756964000000000000000000000000000000000000000000000000000000815250815250600a9060086200025d929190620008ec565b5060405180602001604052806040518060400160405280600281526020017f4f46000000000000000000000000000000000000000000000000000000000000815250815250600b906001620002b492919062000953565b506040518061014001604052806040518060400160405280600a81526020017f4e696c666761617264650000000000000000000000000000000000000000000081525081526020016040518060400160405280600681526020017f43696e747261000000000000000000000000000000000000000000000000000081525081526020016040518060400160405280600b81526020017f4b616572204d6f7268656e00000000000000000000000000000000000000000081525081526020016040518060400160405280600781526020017f54656d657269610000000000000000000000000000000000000000000000000081525081526020016040518060400160405280600581526020017f526976696100000000000000000000000000000000000000000000000000000081525081526020016040518060400160405280600881526020017f536b656c6c69676500000000000000000000000000000000000000000000000081525081526020016040518060400160405280600a81526020017f4772796666696e646f720000000000000000000000000000000000000000000081525081526020016040518060400160405280600a81526020017f487566666c65507566660000000000000000000000000000000000000000000081525081526020016040518060400160405280600981526020017f526176656e436c6177000000000000000000000000000000000000000000000081525081526020016040518060400160405280600981526020017f536c7974686572696e0000000000000000000000000000000000000000000000815250815250600c90600a6200051f929190620009ba565b506040518060c001604052806040518060400160405280600381526020017f726564000000000000000000000000000000000000000000000000000000000081525081526020016040518060400160405280600781526020017f233038433241380000000000000000000000000000000000000000000000000081525081526020016040518060400160405280600581526020017f626c61636b00000000000000000000000000000000000000000000000000000081525081526020016040518060400160405280600681526020017f79656c6c6f77000000000000000000000000000000000000000000000000000081525081526020016040518060400160405280600481526020017f626c75650000000000000000000000000000000000000000000000000000000081525081526020016040518060400160405280600581526020017f677265656e000000000000000000000000000000000000000000000000000000815250815250600d9060066200069d92919062000a21565b506040518060400160405280600881526020017f48656278204e46540000000000000000000000000000000000000000000000008152506040518060400160405280600481526020017f48656278000000000000000000000000000000000000000000000000000000008152508160009080519060200190620007229291906200085b565b5080600190805190602001906200073b9291906200085b565b505050620007896040518060400160405280600781526020017f457069634e4654000000000000000000000000000000000000000000000000008152506200078f60201b620012491760201c565b62000c42565b6200082f81604051602401620007a6919062000b56565b6040516020818303038152906040527f41304fac000000000000000000000000000000000000000000000000000000007bffffffffffffffffffffffffffffffffffffffffffffffffffffffff19166020820180517bffffffffffffffffffffffffffffffffffffffffffffffffffffffff83818316178352505050506200083260201b60201c565b50565b60008151905060006a636f6e736f6c652e6c6f679050602083016000808483855afa5050505050565b828054620008699062000bcc565b90600052602060002090601f0160209004810192826200088d5760008555620008d9565b82601f10620008a857805160ff1916838001178555620008d9565b82800160010185558215620008d9579182015b82811115620008d8578251825591602001919060010190620008bb565b5b509050620008e8919062000a88565b5090565b82805482825590600052602060002090810192821562000940579160200282015b828111156200093f5782518290805190602001906200092e9291906200085b565b50916020019190600101906200090d565b5b5090506200094f919062000aa7565b5090565b828054828255906000526020600020908101928215620009a7579160200282015b82811115620009a6578251829080519060200190620009959291906200085b565b509160200191906001019062000974565b5b509050620009b6919062000aa7565b5090565b82805482825590600052602060002090810192821562000a0e579160200282015b8281111562000a0d578251829080519060200190620009fc9291906200085b565b5091602001919060010190620009db565b5b50905062000a1d919062000aa7565b5090565b82805482825590600052602060002090810192821562000a75579160200282015b8281111562000a7457825182908051906020019062000a639291906200085b565b509160200191906001019062000a42565b5b50905062000a84919062000aa7565b5090565b5b8082111562000aa357600081600090555060010162000a89565b5090565b5b8082111562000acb576000818162000ac1919062000acf565b5060010162000aa8565b5090565b50805462000add9062000bcc565b6000825580601f1062000af1575062000b12565b601f01602090049060005260206000209081019062000b11919062000a88565b5b50565b600062000b228262000b7a565b62000b2e818562000b85565b935062000b4081856020860162000b96565b62000b4b8162000c31565b840191505092915050565b6000602082019050818103600083015262000b72818462000b15565b905092915050565b600081519050919050565b600082825260208201905092915050565b60005b8381101562000bb657808201518184015260208101905062000b99565b8381111562000bc6576000848401525b50505050565b6000600282049050600182168062000be557607f821691505b6020821081141562000bfc5762000bfb62000c02565b5b50919050565b7f4e487b7100000000000000000000000000000000000000000000000000000000600052602260045260246000fd5b6000601f19601f8301169050919050565b613c128062000c526000396000f3fe608060405234801561001057600080fd5b50600436106101165760003560e01c806370a08231116100a2578063b88d4fde11610071578063b88d4fde14610317578063c575757a14610333578063c87b56dd14610363578063de9d132f14610393578063e985e9c51461039d57610116565b806370a082311461027d57806395d89b41146102ad578063a22cb465146102cb578063b187301f146102e757610116565b806323b872dd116100e957806323b872dd146101b55780632de38d68146101d157806342842e0e14610201578063514dc8c61461021d5780636352211e1461024d57610116565b806301ffc9a71461011b57806306fdde031461014b578063081812fc14610169578063095ea7b314610199575b600080fd5b6101356004803603810190610130919061262a565b6103cd565b6040516101429190612dd8565b60405180910390f35b6101536104af565b6040516101609190612df3565b60405180910390f35b610183600480360381019061017e919061267c565b610541565b6040516101909190612d48565b60405180910390f35b6101b360048036038101906101ae91906125ee565b6105c6565b005b6101cf60048036038101906101ca91906124e8565b6106de565b005b6101eb60048036038101906101e6919061267c565b61073e565b6040516101f89190612df3565b60405180910390f35b61021b600480360381019061021691906124e8565b61085c565b005b6102376004803603810190610232919061267c565b61087c565b6040516102449190612df3565b60405180910390f35b6102676004803603810190610262919061267c565b61099a565b6040516102749190612d48565b60405180910390f35b61029760048036038101906102929190612483565b610a4c565b6040516102a49190613053565b60405180910390f35b6102b5610b04565b6040516102c29190612df3565b60405180910390f35b6102e560048036038101906102e091906125b2565b610b96565b005b61030160048036038101906102fc919061267c565b610bac565b60405161030e9190612df3565b60405180910390f35b610331600480360381019061032c9190612537565b610cca565b005b61034d6004803603810190610348919061267c565b610d2c565b60405161035a9190612df3565b60405180910390f35b61037d6004803603810190610378919061267c565b610e4a565b60405161038a9190612df3565b60405180910390f35b61039b610f9c565b005b6103b760048036038101906103b291906124ac565b6111b5565b6040516103c49190612dd8565b60405180910390f35b60007f80ac58cd000000000000000000000000000000000000000000000000000000007bffffffffffffffffffffffffffffffffffffffffffffffffffffffff1916827bffffffffffffffffffffffffffffffffffffffffffffffffffffffff1916148061049857507f5b5e139f000000000000000000000000000000000000000000000000000000007bffffffffffffffffffffffffffffffffffffffffffffffffffffffff1916827bffffffffffffffffffffffffffffffffffffffffffffffffffffffff1916145b806104a857506104a7826112e2565b5b9050919050565b6060600080546104be906132e7565b80601f01602080910402602001604051908101604052809291908181526020018280546104ea906132e7565b80156105375780601f1061050c57610100808354040283529160200191610537565b820191906000526020600020905b81548152906001019060200180831161051a57829003601f168201915b5050505050905090565b600061054c8261134c565b61058b576040517f08c379a000000000000000000000000000000000000000000000000000000000815260040161058290612fb3565b60405180910390fd5b6004600083815260200190815260200160002060009054906101000a900473ffffffffffffffffffffffffffffffffffffffff169050919050565b60006105d18261099a565b90508073ffffffffffffffffffffffffffffffffffffffff168373ffffffffffffffffffffffffffffffffffffffff161415610642576040517f08c379a000000000000000000000000000000000000000000000000000000000815260040161063990613013565b60405180910390fd5b8073ffffffffffffffffffffffffffffffffffffffff166106616113b8565b73ffffffffffffffffffffffffffffffffffffffff161480610690575061068f8161068a6113b8565b6111b5565b5b6106cf576040517f08c379a00000000000000000000000000000000000000000000000000000000081526004016106c690612ef3565b60405180910390fd5b6106d983836113c0565b505050565b6106ef6106e96113b8565b82611479565b61072e576040517f08c379a000000000000000000000000000000000000000000000000000000000815260040161072590613033565b60405180910390fd5b610739838383611557565b505050565b6060600061077261074e846117b3565b60405160200161075e9190612ce2565b604051602081830303815290604052611960565b9050600a80549050816107859190613393565b9050600a81815481106107c1577f4e487b7100000000000000000000000000000000000000000000000000000000600052603260045260246000fd5b9060005260206000200180546107d6906132e7565b80601f0160208091040260200160405190810160405280929190818152602001828054610802906132e7565b801561084f5780601f106108245761010080835404028352916020019161084f565b820191906000526020600020905b81548152906001019060200180831161083257829003601f168201915b5050505050915050919050565b61087783838360405180602001604052806000815250610cca565b505050565b606060006108b061088c846117b3565b60405160200161089c9190612d26565b604051602081830303815290604052611960565b9050600d80549050816108c39190613393565b9050600d81815481106108ff577f4e487b7100000000000000000000000000000000000000000000000000000000600052603260045260246000fd5b906000526020600020018054610914906132e7565b80601f0160208091040260200160405190810160405280929190818152602001828054610940906132e7565b801561098d5780601f106109625761010080835404028352916020019161098d565b820191906000526020600020905b81548152906001019060200180831161097057829003601f168201915b5050505050915050919050565b6000806002600084815260200190815260200160002060009054906101000a900473ffffffffffffffffffffffffffffffffffffffff169050600073ffffffffffffffffffffffffffffffffffffffff168173ffffffffffffffffffffffffffffffffffffffff161415610a43576040517f08c379a0000000000000000000000000000000000000000000000000000000008152600401610a3a90612f33565b60405180910390fd5b80915050919050565b60008073ffffffffffffffffffffffffffffffffffffffff168273ffffffffffffffffffffffffffffffffffffffff161415610abd576040517f08c379a0000000000000000000000000000000000000000000000000000000008152600401610ab490612f13565b60405180910390fd5b600360008373ffffffffffffffffffffffffffffffffffffffff1673ffffffffffffffffffffffffffffffffffffffff168152602001908152602001600020549050919050565b606060018054610b13906132e7565b80601f0160208091040260200160405190810160405280929190818152602001828054610b3f906132e7565b8015610b8c5780601f10610b6157610100808354040283529160200191610b8c565b820191906000526020600020905b815481529060010190602001808311610b6f57829003601f168201915b5050505050905090565b610ba8610ba16113b8565b8383611993565b5050565b60606000610be0610bbc846117b3565b604051602001610bcc9190612c7b565b604051602081830303815290604052611960565b9050600b8054905081610bf39190613393565b9050600b8181548110610c2f577f4e487b7100000000000000000000000000000000000000000000000000000000600052603260045260246000fd5b906000526020600020018054610c44906132e7565b80601f0160208091040260200160405190810160405280929190818152602001828054610c70906132e7565b8015610cbd5780601f10610c9257610100808354040283529160200191610cbd565b820191906000526020600020905b815481529060010190602001808311610ca057829003601f168201915b5050505050915050919050565b610cdb610cd56113b8565b83611479565b610d1a576040517f08c379a0000000000000000000000000000000000000000000000000000000008152600401610d1190613033565b60405180910390fd5b610d2684848484611b00565b50505050565b60606000610d60610d3c846117b3565b604051602001610d4c9190612c59565b604051602081830303815290604052611960565b9050600c8054905081610d739190613393565b9050600c8181548110610daf577f4e487b7100000000000000000000000000000000000000000000000000000000600052603260045260246000fd5b906000526020600020018054610dc4906132e7565b80601f0160208091040260200160405190810160405280929190818152602001828054610df0906132e7565b8015610e3d5780601f10610e1257610100808354040283529160200191610e3d565b820191906000526020600020905b815481529060010190602001808311610e2057829003601f168201915b5050505050915050919050565b6060610e558261134c565b610e94576040517f08c379a0000000000000000000000000000000000000000000000000000000008152600401610e8b90612f93565b60405180910390fd5b6000600660008481526020019081526020016000208054610eb4906132e7565b80601f0160208091040260200160405190810160405280929190818152602001828054610ee0906132e7565b8015610f2d5780601f10610f0257610100808354040283529160200191610f2d565b820191906000526020600020905b815481529060010190602001808311610f1057829003601f168201915b505050505090506000610f3e611b5c565b9050600081511415610f54578192505050610f97565b600082511115610f89578082604051602001610f71929190612b99565b60405160208183030381529060405292505050610f97565b610f9284611b73565b925050505b919050565b6000610fa86007611c1a565b90506000610fb58261073e565b90506000610fc283610bac565b90506000610fcf84610d2c565b90506000838383604051602001610fe893929190612bbd565b604051602081830303815290604052905060006110048661087c565b905060006008826009856040516020016110219493929190612bee565b604051602081830303815290604052905060006110668461104184611c28565b604051602001611052929190612c9d565b604051602081830303815290604052611c28565b905060008160405160200161107b9190612d04565b60405160208183030381529060405290506110ca6040518060400160405280600e81526020017f0a2d2d2d2d2d2d2d2d2d2d2d2d2d000000000000000000000000000000000000815250611249565b6110f2816040516020016110de9190612c37565b604051602081830303815290604052611249565b6111306040518060400160405280600e81526020017f2d2d2d2d2d2d2d2d2d2d2d2d2d0a000000000000000000000000000000000000815250611249565b61113a338a611dc7565b6111448982611de5565b61114e6007611e59565b611171604051806060016040528060258152602001613b78602591398a33611e6f565b7febb98688741ffa4c7589bf325de30cf7becb63de567842e1ccdb6cb949fdc82c338a6040516111a2929190612daf565b60405180910390a1505050505050505050565b6000600560008473ffffffffffffffffffffffffffffffffffffffff1673ffffffffffffffffffffffffffffffffffffffff16815260200190815260200160002060008373ffffffffffffffffffffffffffffffffffffffff1673ffffffffffffffffffffffffffffffffffffffff16815260200190815260200160002060009054906101000a900460ff16905092915050565b6112df8160405160240161125d9190612df3565b6040516020818303038152906040527f41304fac000000000000000000000000000000000000000000000000000000007bffffffffffffffffffffffffffffffffffffffffffffffffffffffff19166020820180517bffffffffffffffffffffffffffffffffffffffffffffffffffffffff8381831617835250505050611f0e565b50565b60007f01ffc9a7000000000000000000000000000000000000000000000000000000007bffffffffffffffffffffffffffffffffffffffffffffffffffffffff1916827bffffffffffffffffffffffffffffffffffffffffffffffffffffffff1916149050919050565b60008073ffffffffffffffffffffffffffffffffffffffff166002600084815260200190815260200160002060009054906101000a900473ffffffffffffffffffffffffffffffffffffffff1673ffffffffffffffffffffffffffffffffffffffff1614159050919050565b600033905090565b816004600083815260200190815260200160002060006101000a81548173ffffffffffffffffffffffffffffffffffffffff021916908373ffffffffffffffffffffffffffffffffffffffff160217905550808273ffffffffffffffffffffffffffffffffffffffff166114338361099a565b73ffffffffffffffffffffffffffffffffffffffff167f8c5be1e5ebec7d5bd14f71427d1e84f3dd0314c0f7b2291e5b200ac8c7c3b92560405160405180910390a45050565b60006114848261134c565b6114c3576040517f08c379a00000000000000000000000000000000000000000000000000000000081526004016114ba90612ed3565b60405180910390fd5b60006114ce8361099a565b90508073ffffffffffffffffffffffffffffffffffffffff168473ffffffffffffffffffffffffffffffffffffffff16148061153d57508373ffffffffffffffffffffffffffffffffffffffff1661152584610541565b73ffffffffffffffffffffffffffffffffffffffff16145b8061154e575061154d81856111b5565b5b91505092915050565b8273ffffffffffffffffffffffffffffffffffffffff166115778261099a565b73ffffffffffffffffffffffffffffffffffffffff16146115cd576040517f08c379a00000000000000000000000000000000000000000000000000000000081526004016115c490612fd3565b60405180910390fd5b600073ffffffffffffffffffffffffffffffffffffffff168273ffffffffffffffffffffffffffffffffffffffff16141561163d576040517f08c379a000000000000000000000000000000000000000000000000000000000815260040161163490612e93565b60405180910390fd5b611648838383611f37565b6116536000826113c0565b6001600360008573ffffffffffffffffffffffffffffffffffffffff1673ffffffffffffffffffffffffffffffffffffffff16815260200190815260200160002060008282546116a391906131fd565b925050819055506001600360008473ffffffffffffffffffffffffffffffffffffffff1673ffffffffffffffffffffffffffffffffffffffff16815260200190815260200160002060008282546116fa919061311c565b92505081905550816002600083815260200190815260200160002060006101000a81548173ffffffffffffffffffffffffffffffffffffffff021916908373ffffffffffffffffffffffffffffffffffffffff160217905550808273ffffffffffffffffffffffffffffffffffffffff168473ffffffffffffffffffffffffffffffffffffffff167fddf252ad1be2c89b69c2b068fc378daa952ba7f163c4a11628f55a4df523b3ef60405160405180910390a4505050565b606060008214156117fb576040518060400160405280600181526020017f3000000000000000000000000000000000000000000000000000000000000000815250905061195b565b600082905060005b6000821461182d5780806118169061334a565b915050600a826118269190613172565b9150611803565b60008167ffffffffffffffff81111561186f577f4e487b7100000000000000000000000000000000000000000000000000000000600052604160045260246000fd5b6040519080825280601f01601f1916602001820160405280156118a15781602001600182028036833780820191505090505b5090505b60008514611954576001826118ba91906131fd565b9150600a856118c99190613393565b60306118d5919061311c565b60f81b818381518110611911577f4e487b7100000000000000000000000000000000000000000000000000000000600052603260045260246000fd5b60200101907effffffffffffffffffffffffffffffffffffffffffffffffffffffffffffff1916908160001a905350600a8561194d9190613172565b94506118a5565b8093505050505b919050565b6000816040516020016119739190612b82565b6040516020818303038152906040528051906020012060001c9050919050565b8173ffffffffffffffffffffffffffffffffffffffff168373ffffffffffffffffffffffffffffffffffffffff161415611a02576040517f08c379a00000000000000000000000000000000000000000000000000000000081526004016119f990612eb3565b60405180910390fd5b80600560008573ffffffffffffffffffffffffffffffffffffffff1673ffffffffffffffffffffffffffffffffffffffff16815260200190815260200160002060008473ffffffffffffffffffffffffffffffffffffffff1673ffffffffffffffffffffffffffffffffffffffff16815260200190815260200160002060006101000a81548160ff0219169083151502179055508173ffffffffffffffffffffffffffffffffffffffff168373ffffffffffffffffffffffffffffffffffffffff167f17307eab39ab6107e8899845ad3d59bd9653f200f220920489ca2b5937696c3183604051611af39190612dd8565b60405180910390a3505050565b611b0b848484611557565b611b1784848484611f3c565b611b56576040517f08c379a0000000000000000000000000000000000000000000000000000000008152600401611b4d90612e53565b60405180910390fd5b50505050565b606060405180602001604052806000815250905090565b6060611b7e8261134c565b611bbd576040517f08c379a0000000000000000000000000000000000000000000000000000000008152600401611bb490612ff3565b60405180910390fd5b6000611bc7611b5c565b90506000815111611be75760405180602001604052806000815250611c12565b80611bf1846117b3565b604051602001611c02929190612b99565b6040516020818303038152906040525b915050919050565b600081600001549050919050565b6060600082511415611c4b57604051806020016040528060008152509050611dc2565b6000604051806060016040528060408152602001613b9d6040913990506000600360028551611c7a919061311c565b611c849190613172565b6004611c9091906131a3565b90506000602082611ca1919061311c565b67ffffffffffffffff811115611ce0577f4e487b7100000000000000000000000000000000000000000000000000000000600052604160045260246000fd5b6040519080825280601f01601f191660200182016040528015611d125781602001600182028036833780820191505090505b509050818152600183018586518101602084015b81831015611d81576003830192508251603f8160121c168501518253600182019150603f81600c1c168501518253600182019150603f8160061c168501518253600182019150603f8116850151825360018201915050611d26565b600389510660018114611d9b5760028114611dab57611db6565b613d3d60f01b6002830352611db6565b603d60f81b60018303525b50505050508093505050505b919050565b611de18282604051806020016040528060008152506120d3565b5050565b611dee8261134c565b611e2d576040517f08c379a0000000000000000000000000000000000000000000000000000000008152600401611e2490612f53565b60405180910390fd5b80600660008481526020019081526020016000209080519060200190611e5492919061230f565b505050565b6001816000016000828254019250508190555050565b611f09838383604051602401611e8793929190612e15565b6040516020818303038152906040527fe3849f79000000000000000000000000000000000000000000000000000000007bffffffffffffffffffffffffffffffffffffffffffffffffffffffff19166020820180517bffffffffffffffffffffffffffffffffffffffffffffffffffffffff8381831617835250505050611f0e565b505050565b60008151905060006a636f6e736f6c652e6c6f679050602083016000808483855afa5050505050565b505050565b6000611f5d8473ffffffffffffffffffffffffffffffffffffffff1661212e565b156120c6578373ffffffffffffffffffffffffffffffffffffffff1663150b7a02611f866113b8565b8786866040518563ffffffff1660e01b8152600401611fa89493929190612d63565b602060405180830381600087803b158015611fc257600080fd5b505af1925050508015611ff357506040513d601f19601f82011682018060405250810190611ff09190612653565b60015b612076573d8060008114612023576040519150601f19603f3d011682016040523d82523d6000602084013e612028565b606091505b5060008151141561206e576040517f08c379a000000000000000000000000000000000000000000000000000000000815260040161206590612e53565b60405180910390fd5b805181602001fd5b63150b7a0260e01b7bffffffffffffffffffffffffffffffffffffffffffffffffffffffff1916817bffffffffffffffffffffffffffffffffffffffffffffffffffffffff1916149150506120cb565b600190505b949350505050565b6120dd8383612141565b6120ea6000848484611f3c565b612129576040517f08c379a000000000000000000000000000000000000000000000000000000000815260040161212090612e53565b60405180910390fd5b505050565b600080823b905060008111915050919050565b600073ffffffffffffffffffffffffffffffffffffffff168273ffffffffffffffffffffffffffffffffffffffff1614156121b1576040517f08c379a00000000000000000000000000000000000000000000000000000000081526004016121a890612f73565b60405180910390fd5b6121ba8161134c565b156121fa576040517f08c379a00000000000000000000000000000000000000000000000000000000081526004016121f190612e73565b60405180910390fd5b61220660008383611f37565b6001600360008473ffffffffffffffffffffffffffffffffffffffff1673ffffffffffffffffffffffffffffffffffffffff1681526020019081526020016000206000828254612256919061311c565b92505081905550816002600083815260200190815260200160002060006101000a81548173ffffffffffffffffffffffffffffffffffffffff021916908373ffffffffffffffffffffffffffffffffffffffff160217905550808273ffffffffffffffffffffffffffffffffffffffff16600073ffffffffffffffffffffffffffffffffffffffff167fddf252ad1be2c89b69c2b068fc378daa952ba7f163c4a11628f55a4df523b3ef60405160405180910390a45050565b82805461231b906132e7565b90600052602060002090601f01602090048101928261233d5760008555612384565b82601f1061235657805160ff1916838001178555612384565b82800160010185558215612384579182015b82811115612383578251825591602001919060010190612368565b5b5090506123919190612395565b5090565b5b808211156123ae576000816000905550600101612396565b5090565b60006123c56123c084613093565b61306e565b9050828152602081018484840111156123dd57600080fd5b6123e88482856132a5565b509392505050565b6000813590506123ff81613b1b565b92915050565b60008135905061241481613b32565b92915050565b60008135905061242981613b49565b92915050565b60008151905061243e81613b49565b92915050565b600082601f83011261245557600080fd5b81356124658482602086016123b2565b91505092915050565b60008135905061247d81613b60565b92915050565b60006020828403121561249557600080fd5b60006124a3848285016123f0565b91505092915050565b600080604083850312156124bf57600080fd5b60006124cd858286016123f0565b92505060206124de858286016123f0565b9150509250929050565b6000806000606084860312156124fd57600080fd5b600061250b868287016123f0565b935050602061251c868287016123f0565b925050604061252d8682870161246e565b9150509250925092565b6000806000806080858703121561254d57600080fd5b600061255b878288016123f0565b945050602061256c878288016123f0565b935050604061257d8782880161246e565b925050606085013567ffffffffffffffff81111561259a57600080fd5b6125a687828801612444565b91505092959194509250565b600080604083850312156125c557600080fd5b60006125d3858286016123f0565b92505060206125e485828601612405565b9150509250929050565b6000806040838503121561260157600080fd5b600061260f858286016123f0565b92505060206126208582860161246e565b9150509250929050565b60006020828403121561263c57600080fd5b600061264a8482850161241a565b91505092915050565b60006020828403121561266557600080fd5b60006126738482850161242f565b91505092915050565b60006020828403121561268e57600080fd5b600061269c8482850161246e565b91505092915050565b6126ae81613231565b82525050565b6126bd81613243565b82525050565b60006126ce826130d9565b6126d881856130ef565b93506126e88185602086016132b4565b6126f181613480565b840191505092915050565b6000612707826130e4565b6127118185613100565b93506127218185602086016132b4565b61272a81613480565b840191505092915050565b6000612740826130e4565b61274a8185613111565b935061275a8185602086016132b4565b80840191505092915050565b60008154612773816132e7565b61277d8186613111565b9450600182166000811461279857600181146127a9576127dc565b60ff198316865281860193506127dc565b6127b2856130c4565b60005b838110156127d4578154818901526001820191506020810190506127b5565b838801955050505b50505092915050565b60006127f2602583613111565b91506127fd82613491565b602582019050919050565b6000612815603283613100565b9150612820826134e0565b604082019050919050565b6000612838601c83613100565b91506128438261352f565b602082019050919050565b600061285b600a83613111565b915061286682613558565b600a82019050919050565b600061287e602483613100565b915061288982613581565b604082019050919050565b60006128a1601983613100565b91506128ac826135d0565b602082019050919050565b60006128c4600b83613111565b91506128cf826135f9565b600b82019050919050565b60006128e7602c83613100565b91506128f282613622565b604082019050919050565b600061290a600d83613111565b915061291582613671565b600d82019050919050565b600061292d603883613100565b91506129388261369a565b604082019050919050565b6000612950602a83613100565b915061295b826136e9565b604082019050919050565b6000612973602983613100565b915061297e82613738565b604082019050919050565b6000612996602e83613100565b91506129a182613787565b604082019050919050565b60006129b9600283613111565b91506129c4826137d6565b600282019050919050565b60006129dc602083613100565b91506129e7826137ff565b602082019050919050565b60006129ff603183613100565b9150612a0a82613828565b604082019050919050565b6000612a22602c83613100565b9150612a2d82613877565b604082019050919050565b6000612a45602983613100565b9150612a50826138c6565b604082019050919050565b6000612a68602f83613100565b9150612a7382613915565b604082019050919050565b6000612a8b600a83613111565b9150612a9682613964565b600a82019050919050565b6000612aae602183613100565b9150612ab98261398d565b604082019050919050565b6000612ad1600a83613111565b9150612adc826139dc565b600a82019050919050565b6000612af4601d83613111565b9150612aff82613a05565b601d82019050919050565b6000612b17604883613111565b9150612b2282613a2e565b604882019050919050565b6000612b3a603183613100565b9150612b4582613aa3565b604082019050919050565b6000612b5d600583613111565b9150612b6882613af2565b600582019050919050565b612b7c8161329b565b82525050565b6000612b8e8284612735565b915081905092915050565b6000612ba58285612735565b9150612bb18284612735565b91508190509392505050565b6000612bc98286612735565b9150612bd58285612735565b9150612be18284612735565b9150819050949350505050565b6000612bfa8287612766565b9150612c068286612735565b9150612c128285612766565b9150612c1e8284612735565b9150612c29826128fd565b915081905095945050505050565b6000612c42826127e5565b9150612c4e8284612735565b915081905092915050565b6000612c648261284e565b9150612c708284612735565b915081905092915050565b6000612c86826128b7565b9150612c928284612735565b915081905092915050565b6000612ca882612a7e565b9150612cb48285612735565b9150612cbf82612b0a565b9150612ccb8284612735565b9150612cd6826129ac565b91508190509392505050565b6000612ced82612ac4565b9150612cf98284612735565b915081905092915050565b6000612d0f82612ae7565b9150612d1b8284612735565b915081905092915050565b6000612d3182612b50565b9150612d3d8284612735565b915081905092915050565b6000602082019050612d5d60008301846126a5565b92915050565b6000608082019050612d7860008301876126a5565b612d8560208301866126a5565b612d926040830185612b73565b8181036060830152612da481846126c3565b905095945050505050565b6000604082019050612dc460008301856126a5565b612dd16020830184612b73565b9392505050565b6000602082019050612ded60008301846126b4565b92915050565b60006020820190508181036000830152612e0d81846126fc565b905092915050565b60006060820190508181036000830152612e2f81866126fc565b9050612e3e6020830185612b73565b612e4b60408301846126a5565b949350505050565b60006020820190508181036000830152612e6c81612808565b9050919050565b60006020820190508181036000830152612e8c8161282b565b9050919050565b60006020820190508181036000830152612eac81612871565b9050919050565b60006020820190508181036000830152612ecc81612894565b9050919050565b60006020820190508181036000830152612eec816128da565b9050919050565b60006020820190508181036000830152612f0c81612920565b9050919050565b60006020820190508181036000830152612f2c81612943565b9050919050565b60006020820190508181036000830152612f4c81612966565b9050919050565b60006020820190508181036000830152612f6c81612989565b9050919050565b60006020820190508181036000830152612f8c816129cf565b9050919050565b60006020820190508181036000830152612fac816129f2565b9050919050565b60006020820190508181036000830152612fcc81612a15565b9050919050565b60006020820190508181036000830152612fec81612a38565b9050919050565b6000602082019050818103600083015261300c81612a5b565b9050919050565b6000602082019050818103600083015261302c81612aa1565b9050919050565b6000602082019050818103600083015261304c81612b2d565b9050919050565b60006020820190506130686000830184612b73565b92915050565b6000613078613089565b90506130848282613319565b919050565b6000604051905090565b600067ffffffffffffffff8211156130ae576130ad613451565b5b6130b782613480565b9050602081019050919050565b60008190508160005260206000209050919050565b600081519050919050565b600081519050919050565b600082825260208201905092915050565b600082825260208201905092915050565b600081905092915050565b60006131278261329b565b91506131328361329b565b9250827fffffffffffffffffffffffffffffffffffffffffffffffffffffffffffffffff03821115613167576131666133c4565b5b828201905092915050565b600061317d8261329b565b91506131888361329b565b925082613198576131976133f3565b5b828204905092915050565b60006131ae8261329b565b91506131b98361329b565b9250817fffffffffffffffffffffffffffffffffffffffffffffffffffffffffffffffff04831182151516156131f2576131f16133c4565b5b828202905092915050565b60006132088261329b565b91506132138361329b565b925082821015613226576132256133c4565b5b828203905092915050565b600061323c8261327b565b9050919050565b60008115159050919050565b60007fffffffff0000000000000000000000000000000000000000000000000000000082169050919050565b600073ffffffffffffffffffffffffffffffffffffffff82169050919050565b6000819050919050565b82818337600083830152505050565b60005b838110156132d25780820151818401526020810190506132b7565b838111156132e1576000848401525b50505050565b600060028204905060018216806132ff57607f821691505b6020821081141561331357613312613422565b5b50919050565b61332282613480565b810181811067ffffffffffffffff8211171561334157613340613451565b5b80604052505050565b60006133558261329b565b91507fffffffffffffffffffffffffffffffffffffffffffffffffffffffffffffffff821415613388576133876133c4565b5b600182019050919050565b600061339e8261329b565b91506133a98361329b565b9250826133b9576133b86133f3565b5b828206905092915050565b7f4e487b7100000000000000000000000000000000000000000000000000000000600052601160045260246000fd5b7f4e487b7100000000000000000000000000000000000000000000000000000000600052601260045260246000fd5b7f4e487b7100000000000000000000000000000000000000000000000000000000600052602260045260246000fd5b7f4e487b7100000000000000000000000000000000000000000000000000000000600052604160045260246000fd5b6000601f19601f8301169050919050565b7f68747470733a2f2f6e6674707265766965772e30786465762e636f6465732f3f60008201527f636f64653d000000000000000000000000000000000000000000000000000000602082015250565b7f4552433732313a207472616e7366657220746f206e6f6e20455243373231526560008201527f63656976657220696d706c656d656e7465720000000000000000000000000000602082015250565b7f4552433732313a20746f6b656e20616c7265616479206d696e74656400000000600082015250565b7f54484952445f574f524400000000000000000000000000000000000000000000600082015250565b7f4552433732313a207472616e7366657220746f20746865207a65726f2061646460008201527f7265737300000000000000000000000000000000000000000000000000000000602082015250565b7f4552433732313a20617070726f766520746f2063616c6c657200000000000000600082015250565b7f5345434f4e445f574f5244000000000000000000000000000000000000000000600082015250565b7f4552433732313a206f70657261746f7220717565727920666f72206e6f6e657860008201527f697374656e7420746f6b656e0000000000000000000000000000000000000000602082015250565b7f3c2f746578743e3c2f7376673e00000000000000000000000000000000000000600082015250565b7f4552433732313a20617070726f76652063616c6c6572206973206e6f74206f7760008201527f6e6572206e6f7220617070726f76656420666f7220616c6c0000000000000000602082015250565b7f4552433732313a2062616c616e636520717565727920666f7220746865207a6560008201527f726f206164647265737300000000000000000000000000000000000000000000602082015250565b7f4552433732313a206f776e657220717565727920666f72206e6f6e657869737460008201527f656e7420746f6b656e0000000000000000000000000000000000000000000000602082015250565b7f45524337323155524953746f726167653a2055524920736574206f66206e6f6e60008201527f6578697374656e7420746f6b656e000000000000000000000000000000000000602082015250565b7f227d000000000000000000000000000000000000000000000000000000000000600082015250565b7f4552433732313a206d696e7420746f20746865207a65726f2061646472657373600082015250565b7f45524337323155524953746f726167653a2055524920717565727920666f722060008201527f6e6f6e6578697374656e7420746f6b656e000000000000000000000000000000602082015250565b7f4552433732313a20617070726f76656420717565727920666f72206e6f6e657860008201527f697374656e7420746f6b656e0000000000000000000000000000000000000000602082015250565b7f4552433732313a207472616e73666572206f6620746f6b656e2074686174206960008201527f73206e6f74206f776e0000000000000000000000000000000000000000000000602082015250565b7f4552433732314d657461646174613a2055524920717565727920666f72206e6f60008201527f6e6578697374656e7420746f6b656e0000000000000000000000000000000000602082015250565b7f7b226e616d65223a202200000000000000000000000000000000000000000000600082015250565b7f4552433732313a20617070726f76616c20746f2063757272656e74206f776e6560008201527f7200000000000000000000000000000000000000000000000000000000000000602082015250565b7f46495253545f574f524400000000000000000000000000000000000000000000600082015250565b7f646174613a6170706c69636174696f6e2f6a736f6e3b6261736536342c000000600082015250565b7f222c20226465736372697074696f6e223a202256656e6920566964692056696360008201527f69222c2022696d616765223a2022646174613a696d6167652f7376672b786d6c60208201527f3b6261736536342c000000000000000000000000000000000000000000000000604082015250565b7f4552433732313a207472616e736665722063616c6c6572206973206e6f74206f60008201527f776e6572206e6f7220617070726f766564000000000000000000000000000000602082015250565b7f434f4c4f52000000000000000000000000000000000000000000000000000000600082015250565b613b2481613231565b8114613b2f57600080fd5b50565b613b3b81613243565b8114613b4657600080fd5b50565b613b528161324f565b8114613b5d57600080fd5b50565b613b698161329b565b8114613b7457600080fd5b5056fe616e204e465420772f20494420257320686173206265656e206d696e74656420746f2025734142434445464748494a4b4c4d4e4f505152535455565758595a6162636465666768696a6b6c6d6e6f707172737475767778797a303132333435363738392b2fa26469706673582212200c41503d4c067278f5c746b15ef69702d861db7ac2e3f610ad3fd5c04c5092be64736f6c634300080400333c73766720786d6c6e733d27687474703a2f2f7777772e77332e6f72672f323030302f73766727207072657365727665417370656374526174696f3d27784d696e594d696e206d656574272076696577426f783d273020302033353020333530273e3c7374796c653e2e62617365207b2066696c6c3a2077686974653b20666f6e742d66616d696c793a2073657269663b20666f6e742d73697a653a20323470783b207d3c2f7374796c653e3c726563742077696474683d273130302527206865696768743d2731303025272066696c6c3d27272f3e3c7465787420783d273530252720793d273530252720636c6173733d27626173652720646f6d696e616e742d626173656c696e653d276d6964646c652720746578742d616e63686f723d276d6964646c65273e",
	"linkReferences": {},
	"deployedLinkReferences": {}
}