{
	"_format": "hh-sol-artifact-1",
	"contractName": "EpicNFT",
	"sourceName": "contracts/EpicNFT.sol",
	"abi": [
		{
			"inputs": [],
			"stateMutability": "payable",
			"type": "constructor"
		},
		{
			"anonymous": false,
			"inputs": [
				{
					"indexed": true,
					"internalType": "address",
					"name": "owner",
					"type": "address"
				},
				{
					"indexed": true,
					"internalType": "address",
					"name": "approved",
					"type": "address"
				},
				{
					"indexed": true,
					"internalType": "uint256",
					"name": "tokenId",
					"type": "uint256"
				}
			],
			"name": "Approval",
			"type": "event"
		},
		{
			"anonymous": false,
			"inputs": [
				{
					"indexed": true,
					"internalType": "address",
					"name": "owner",
					"type": "address"
				},
				{
					"indexed": true,
					"internalType": "address",
					"name": "operator",
					"type": "address"
				},
				{
					"indexed": false,
					"internalType": "bool",
					"name": "approved",
					"type": "bool"
				}
			],
			"name": "ApprovalForAll",
			"type": "event"
		},
		{
			"anonymous": false,
			"inputs": [
				{
					"indexed": false,
					"internalType": "address",
					"name": "sender",
					"type": "address"
				},
				{
					"indexed": false,
					"internalType": "uint256",
					"name": "tokenID",
					"type": "uint256"
				}
			],
			"name": "NewEpicNFTMinted",
			"type": "event"
		},
		{
			"anonymous": false,
			"inputs": [
				{
					"indexed": true,
					"internalType": "address",
					"name": "from",
					"type": "address"
				},
				{
					"indexed": true,
					"internalType": "address",
					"name": "to",
					"type": "address"
				},
				{
					"indexed": true,
					"internalType": "uint256",
					"name": "tokenId",
					"type": "uint256"
				}
			],
			"name": "Transfer",
			"type": "event"
		},
		{
			"inputs": [
				{
					"internalType": "address",
					"name": "to",
					"type": "address"
				},
				{
					"internalType": "uint256",
					"name": "tokenId",
					"type": "uint256"
				}
			],
			"name": "approve",
			"outputs": [],
			"stateMutability": "nonpayable",
			"type": "function"
		},
		{
			"inputs": [
				{
					"internalType": "address",
					"name": "owner",
					"type": "address"
				}
			],
			"name": "balanceOf",
			"outputs": [
				{
					"internalType": "uint256",
					"name": "",
					"type": "uint256"
				}
			],
			"stateMutability": "view",
			"type": "function"
		},
		{
			"inputs": [
				{
					"internalType": "uint256",
					"name": "tokenId",
					"type": "uint256"
				}
			],
			"name": "getApproved",
			"outputs": [
				{
					"internalType": "address",
					"name": "",
					"type": "address"
				}
			],
			"stateMutability": "view",
			"type": "function"
		},
		{
			"inputs": [],
			"name": "getTotalNFTsMinted",
			"outputs": [
				{
					"internalType": "uint256",
					"name": "",
					"type": "uint256"
				}
			],
			"stateMutability": "view",
			"type": "function"
		},
		{
			"inputs": [
				{
					"internalType": "address",
					"name": "owner",
					"type": "address"
				},
				{
					"internalType": "address",
					"name": "operator",
					"type": "address"
				}
			],
			"name": "isApprovedForAll",
			"outputs": [
				{
					"internalType": "bool",
					"name": "",
					"type": "bool"
				}
			],
			"stateMutability": "view",
			"type": "function"
		},
		{
			"inputs": [],
			"name": "makeAnEpicNFT",
			"outputs": [],
			"stateMutability": "nonpayable",
			"type": "function"
		},
		{
			"inputs": [],
			"name": "name",
			"outputs": [
				{
					"internalType": "string",
					"name": "",
					"type": "string"
				}
			],
			"stateMutability": "view",
			"type": "function"
		},
		{
			"inputs": [
				{
					"internalType": "uint256",
					"name": "tokenId",
					"type": "uint256"
				}
			],
			"name": "ownerOf",
			"outputs": [
				{
					"internalType": "address",
					"name": "",
					"type": "address"
				}
			],
			"stateMutability": "view",
			"type": "function"
		},
		{
			"inputs": [
				{
					"internalType": "uint256",
					"name": "tokenID",
					"type": "uint256"
				}
			],
			"name": "pickRandomColor",
			"outputs": [
				{
					"internalType": "string",
					"name": "",
					"type": "string"
				}
			],
			"stateMutability": "view",
			"type": "function"
		},
		{
			"inputs": [
				{
					"internalType": "uint256",
					"name": "tokenID",
					"type": "uint256"
				}
			],
			"name": "pickRandomFirstWord",
			"outputs": [
				{
					"internalType": "string",
					"name": "",
					"type": "string"
				}
			],
			"stateMutability": "view",
			"type": "function"
		},
		{
			"inputs": [
				{
					"internalType": "uint256",
					"name": "tokenID",
					"type": "uint256"
				}
			],
			"name": "pickRandomSecondWord",
			"outputs": [
				{
					"internalType": "string",
					"name": "",
					"type": "string"
				}
			],
			"stateMutability": "view",
			"type": "function"
		},
		{
			"inputs": [
				{
					"internalType": "uint256",
					"name": "tokenID",
					"type": "uint256"
				}
			],
			"name": "pickRandomThirdWord",
			"outputs": [
				{
					"internalType": "string",
					"name": "",
					"type": "string"
				}
			],
			"stateMutability": "view",
			"type": "function"
		},
		{
			"inputs": [
				{
					"internalType": "address",
					"name": "from",
					"type": "address"
				},
				{
					"internalType": "address",
					"name": "to",
					"type": "address"
				},
				{
					"internalType": "uint256",
					"name": "tokenId",
					"type": "uint256"
				}
			],
			"name": "safeTransferFrom",
			"outputs": [],
			"stateMutability": "nonpayable",
			"type": "function"
		},
		{
			"inputs": [
				{
					"internalType": "address",
					"name": "from",
					"type": "address"
				},
				{
					"internalType": "address",
					"name": "to",
					"type": "address"
				},
				{
					"internalType": "uint256",
					"name": "tokenId",
					"type": "uint256"
				},
				{
					"internalType": "bytes",
					"name": "_data",
					"type": "bytes"
				}
			],
			"name": "safeTransferFrom",
			"outputs": [],
			"stateMutability": "nonpayable",
			"type": "function"
		},
		{
			"inputs": [
				{
					"internalType": "address",
					"name": "operator",
					"type": "address"
				},
				{
					"internalType": "bool",
					"name": "approved",
					"type": "bool"
				}
			],
			"name": "setApprovalForAll",
			"outputs": [],
			"stateMutability": "nonpayable",
			"type": "function"
		},
		{
			"inputs": [
				{
					"internalType": "bytes4",
					"name": "interfaceId",
					"type": "bytes4"
				}
			],
			"name": "supportsInterface",
			"outputs": [
				{
					"internalType": "bool",
					"name": "",
					"type": "bool"
				}
			],
			"stateMutability": "view",
			"type": "function"
		},
		{
			"inputs": [],
			"name": "symbol",
			"outputs": [
				{
					"internalType": "string",
					"name": "",
					"type": "string"
				}
			],
			"stateMutability": "view",
			"type": "function"
		},
		{
			"inputs": [
				{
					"internalType": "uint256",
					"name": "tokenId",
					"type": "uint256"
				}
			],
			"name": "tokenURI",
			"outputs": [
				{
					"internalType": "string",
					"name": "",
					"type": "string"
				}
			],
			"stateMutability": "view",
			"type": "function"
		},
		{
			"inputs": [
				{
					"internalType": "address",
					"name": "from",
					"type": "address"
				},
				{
					"internalType": "address",
					"name": "to",
					"type": "address"
				},
				{
					"internalType": "uint256",
					"name": "tokenId",
					"type": "uint256"
				}
			],
			"name": "transferFrom",
			"outputs": [],
			"stateMutability": "nonpayable",
			"type": "function"
		}
	],
	"bytecode": "0x608060405260405180610100016040528060d381526020016200495960d3913960089080519060200190620000369291906200085b565b5060405180608001604052806056815260200162004a2c6056913960099080519060200190620000689291906200085b565b506040518061010001604052806040518060400160405280600581526020017f48756d616e00000000000000000000000000000000000000000000000000000081525081526020016040518060400160405280600381526020017f456c66000000000000000000000000000000000000000000000000000000000081525081526020016040518060400160405280600581526020017f447761726600000000000000000000000000000000000000000000000000000081525081526020016040518060400160405280600481526020017f4d6167650000000000000000000000000000000000000000000000000000000081525081526020016040518060400160405280600781526020017f576974636865720000000000000000000000000000000000000000000000000081525081526020016040518060400160405280600581526020017f456c64657200000000000000000000000000000000000000000000000000000081525081526020016040518060400160405280600681526020017f57697a617264000000000000000000000000000000000000000000000000000081525081526020016040518060400160405280600581526020017f4472756964000000000000000000000000000000000000000000000000000000815250815250600a9060086200025d929190620008ec565b5060405180602001604052806040518060400160405280600281526020017f4f46000000000000000000000000000000000000000000000000000000000000815250815250600b906001620002b492919062000953565b506040518061014001604052806040518060400160405280600a81526020017f4e696c666761617264650000000000000000000000000000000000000000000081525081526020016040518060400160405280600681526020017f43696e747261000000000000000000000000000000000000000000000000000081525081526020016040518060400160405280600b81526020017f4b616572204d6f7268656e00000000000000000000000000000000000000000081525081526020016040518060400160405280600781526020017f54656d657269610000000000000000000000000000000000000000000000000081525081526020016040518060400160405280600581526020017f526976696100000000000000000000000000000000000000000000000000000081525081526020016040518060400160405280600881526020017f536b656c6c69676500000000000000000000000000000000000000000000000081525081526020016040518060400160405280600a81526020017f4772796666696e646f720000000000000000000000000000000000000000000081525081526020016040518060400160405280600a81526020017f487566666c65507566660000000000000000000000000000000000000000000081525081526020016040518060400160405280600981526020017f526176656e436c6177000000000000000000000000000000000000000000000081525081526020016040518060400160405280600981526020017f536c7974686572696e0000000000000000000000000000000000000000000000815250815250600c90600a6200051f929190620009ba565b506040518060c001604052806040518060400160405280600381526020017f726564000000000000000000000000000000000000000000000000000000000081525081526020016040518060400160405280600781526020017f233038433241380000000000000000000000000000000000000000000000000081525081526020016040518060400160405280600581526020017f626c61636b00000000000000000000000000000000000000000000000000000081525081526020016040518060400160405280600681526020017f79656c6c6f77000000000000000000000000000000000000000000000000000081525081526020016040518060400160405280600481526020017f626c75650000000000000000000000000000000000000000000000000000000081525081526020016040518060400160405280600581526020017f677265656e000000000000000000000000000000000000000000000000000000815250815250600d9060066200069d92919062000a21565b506040518060400160405280600881526020017f48656278204e46540000000000000000000000000000000000000000000000008152506040518060400160405280600481526020017f48656278000000000000000000000000000000000000000000000000000000008152508160009080519060200190620007229291906200085b565b5080600190805190602001906200073b9291906200085b565b505050620007896040518060400160405280600781526020017f457069634e4654000000000000000000000000000000000000000000000000008152506200078f60201b620012d21760201c565b62000c42565b6200082f81604051602401620007a6919062000b56565b6040516020818303038152906040527f41304fac000000000000000000000000000000000000000000000000000000007bffffffffffffffffffffffffffffffffffffffffffffffffffffffff19166020820180517bffffffffffffffffffffffffffffffffffffffffffffffffffffffff83818316178352505050506200083260201b60201c565b50565b60008151905060006a636f6e736f6c652e6c6f679050602083016000808483855afa5050505050565b828054620008699062000bcc565b90600052602060002090601f0160209004810192826200088d5760008555620008d9565b82601f10620008a857805160ff1916838001178555620008d9565b82800160010185558215620008d9579182015b82811115620008d8578251825591602001919060010190620008bb565b5b509050620008e8919062000a88565b5090565b82805482825590600052602060002090810192821562000940579160200282015b828111156200093f5782518290805190602001906200092e9291906200085b565b50916020019190600101906200090d565b5b5090506200094f919062000aa7565b5090565b828054828255906000526020600020908101928215620009a7579160200282015b82811115620009a6578251829080519060200190620009959291906200085b565b509160200191906001019062000974565b5b509050620009b6919062000aa7565b5090565b82805482825590600052602060002090810192821562000a0e579160200282015b8281111562000a0d578251829080519060200190620009fc9291906200085b565b5091602001919060010190620009db565b5b50905062000a1d919062000aa7565b5090565b82805482825590600052602060002090810192821562000a75579160200282015b8281111562000a7457825182908051906020019062000a639291906200085b565b509160200191906001019062000a42565b5b50905062000a84919062000aa7565b5090565b5b8082111562000aa357600081600090555060010162000a89565b5090565b5b8082111562000acb576000818162000ac1919062000acf565b5060010162000aa8565b5090565b50805462000add9062000bcc565b6000825580601f1062000af1575062000b12565b601f01602090049060005260206000209081019062000b11919062000a88565b5b50565b600062000b228262000b7a565b62000b2e818562000b85565b935062000b4081856020860162000b96565b62000b4b8162000c31565b840191505092915050565b6000602082019050818103600083015262000b72818462000b15565b905092915050565b600081519050919050565b600082825260208201905092915050565b60005b8381101562000bb657808201518184015260208101905062000b99565b8381111562000bc6576000848401525b50505050565b6000600282049050600182168062000be557607f821691505b6020821081141562000bfc5762000bfb62000c02565b5b50919050565b7f4e487b7100000000000000000000000000000000000000000000000000000000600052602260045260246000fd5b6000601f19601f8301169050919050565b613d078062000c526000396000f3fe608060405234801561001057600080fd5b50600436106101215760003560e01c806370a08231116100ad578063b88d4fde11610071578063b88d4fde14610340578063c575757a1461035c578063c87b56dd1461038c578063de9d132f146103bc578063e985e9c5146103c657610121565b806370a082311461028857806395d89b41146102b8578063a22cb465146102d6578063b187301f146102f2578063b4c3b8be1461032257610121565b806323b872dd116100f457806323b872dd146101c05780632de38d68146101dc57806342842e0e1461020c578063514dc8c6146102285780636352211e1461025857610121565b806301ffc9a71461012657806306fdde0314610156578063081812fc14610174578063095ea7b3146101a4575b600080fd5b610140600480360381019061013b91906126b3565b6103f6565b60405161014d9190612e84565b60405180910390f35b61015e6104d8565b60405161016b9190612e9f565b60405180910390f35b61018e60048036038101906101899190612705565b61056a565b60405161019b9190612df4565b60405180910390f35b6101be60048036038101906101b99190612677565b6105ef565b005b6101da60048036038101906101d59190612571565b610707565b005b6101f660048036038101906101f19190612705565b610767565b6040516102039190612e9f565b60405180910390f35b61022660048036038101906102219190612571565b610885565b005b610242600480360381019061023d9190612705565b6108a5565b60405161024f9190612e9f565b60405180910390f35b610272600480360381019061026d9190612705565b6109c3565b60405161027f9190612df4565b60405180910390f35b6102a2600480360381019061029d919061250c565b610a75565b6040516102af919061311f565b60405180910390f35b6102c0610b2d565b6040516102cd9190612e9f565b60405180910390f35b6102f060048036038101906102eb919061263b565b610bbf565b005b61030c60048036038101906103079190612705565b610bd5565b6040516103199190612e9f565b60405180910390f35b61032a610cf3565b604051610337919061311f565b60405180910390f35b61035a600480360381019061035591906125c0565b610d10565b005b61037660048036038101906103719190612705565b610d72565b6040516103839190612e9f565b60405180910390f35b6103a660048036038101906103a19190612705565b610e90565b6040516103b39190612e9f565b60405180910390f35b6103c4610fe2565b005b6103e060048036038101906103db9190612535565b61123e565b6040516103ed9190612e84565b60405180910390f35b60007f80ac58cd000000000000000000000000000000000000000000000000000000007bffffffffffffffffffffffffffffffffffffffffffffffffffffffff1916827bffffffffffffffffffffffffffffffffffffffffffffffffffffffff191614806104c157507f5b5e139f000000000000000000000000000000000000000000000000000000007bffffffffffffffffffffffffffffffffffffffffffffffffffffffff1916827bffffffffffffffffffffffffffffffffffffffffffffffffffffffff1916145b806104d157506104d08261136b565b5b9050919050565b6060600080546104e7906133b3565b80601f0160208091040260200160405190810160405280929190818152602001828054610513906133b3565b80156105605780601f1061053557610100808354040283529160200191610560565b820191906000526020600020905b81548152906001019060200180831161054357829003601f168201915b5050505050905090565b6000610575826113d5565b6105b4576040517f08c379a00000000000000000000000000000000000000000000000000000000081526004016105ab9061307f565b60405180910390fd5b6004600083815260200190815260200160002060009054906101000a900473ffffffffffffffffffffffffffffffffffffffff169050919050565b60006105fa826109c3565b90508073ffffffffffffffffffffffffffffffffffffffff168373ffffffffffffffffffffffffffffffffffffffff16141561066b576040517f08c379a0000000000000000000000000000000000000000000000000000000008152600401610662906130df565b60405180910390fd5b8073ffffffffffffffffffffffffffffffffffffffff1661068a611441565b73ffffffffffffffffffffffffffffffffffffffff1614806106b957506106b8816106b3611441565b61123e565b5b6106f8576040517f08c379a00000000000000000000000000000000000000000000000000000000081526004016106ef90612f9f565b60405180910390fd5b6107028383611449565b505050565b610718610712611441565b82611502565b610757576040517f08c379a000000000000000000000000000000000000000000000000000000000815260040161074e906130ff565b60405180910390fd5b6107628383836115e0565b505050565b6060600061079b6107778461183c565b6040516020016107879190612d8e565b6040516020818303038152906040526119e9565b9050600a80549050816107ae919061345f565b9050600a81815481106107ea577f4e487b7100000000000000000000000000000000000000000000000000000000600052603260045260246000fd5b9060005260206000200180546107ff906133b3565b80601f016020809104026020016040519081016040528092919081815260200182805461082b906133b3565b80156108785780601f1061084d57610100808354040283529160200191610878565b820191906000526020600020905b81548152906001019060200180831161085b57829003601f168201915b5050505050915050919050565b6108a083838360405180602001604052806000815250610d10565b505050565b606060006108d96108b58461183c565b6040516020016108c59190612dd2565b6040516020818303038152906040526119e9565b9050600d80549050816108ec919061345f565b9050600d8181548110610928577f4e487b7100000000000000000000000000000000000000000000000000000000600052603260045260246000fd5b90600052602060002001805461093d906133b3565b80601f0160208091040260200160405190810160405280929190818152602001828054610969906133b3565b80156109b65780601f1061098b576101008083540402835291602001916109b6565b820191906000526020600020905b81548152906001019060200180831161099957829003601f168201915b5050505050915050919050565b6000806002600084815260200190815260200160002060009054906101000a900473ffffffffffffffffffffffffffffffffffffffff169050600073ffffffffffffffffffffffffffffffffffffffff168173ffffffffffffffffffffffffffffffffffffffff161415610a6c576040517f08c379a0000000000000000000000000000000000000000000000000000000008152600401610a6390612fdf565b60405180910390fd5b80915050919050565b60008073ffffffffffffffffffffffffffffffffffffffff168273ffffffffffffffffffffffffffffffffffffffff161415610ae6576040517f08c379a0000000000000000000000000000000000000000000000000000000008152600401610add90612fbf565b60405180910390fd5b600360008373ffffffffffffffffffffffffffffffffffffffff1673ffffffffffffffffffffffffffffffffffffffff168152602001908152602001600020549050919050565b606060018054610b3c906133b3565b80601f0160208091040260200160405190810160405280929190818152602001828054610b68906133b3565b8015610bb55780601f10610b8a57610100808354040283529160200191610bb5565b820191906000526020600020905b815481529060010190602001808311610b9857829003601f168201915b5050505050905090565b610bd1610bca611441565b8383611a1c565b5050565b60606000610c09610be58461183c565b604051602001610bf59190612d27565b6040516020818303038152906040526119e9565b9050600b8054905081610c1c919061345f565b9050600b8181548110610c58577f4e487b7100000000000000000000000000000000000000000000000000000000600052603260045260246000fd5b906000526020600020018054610c6d906133b3565b80601f0160208091040260200160405190810160405280929190818152602001828054610c99906133b3565b8015610ce65780601f10610cbb57610100808354040283529160200191610ce6565b820191906000526020600020905b815481529060010190602001808311610cc957829003601f168201915b5050505050915050919050565b60006001610d016007611b89565b610d0b91906132c9565b905090565b610d21610d1b611441565b83611502565b610d60576040517f08c379a0000000000000000000000000000000000000000000000000000000008152600401610d57906130ff565b60405180910390fd5b610d6c84848484611b97565b50505050565b60606000610da6610d828461183c565b604051602001610d929190612d05565b6040516020818303038152906040526119e9565b9050600c8054905081610db9919061345f565b9050600c8181548110610df5577f4e487b7100000000000000000000000000000000000000000000000000000000600052603260045260246000fd5b906000526020600020018054610e0a906133b3565b80601f0160208091040260200160405190810160405280929190818152602001828054610e36906133b3565b8015610e835780601f10610e5857610100808354040283529160200191610e83565b820191906000526020600020905b815481529060010190602001808311610e6657829003601f168201915b5050505050915050919050565b6060610e9b826113d5565b610eda576040517f08c379a0000000000000000000000000000000000000000000000000000000008152600401610ed19061305f565b60405180910390fd5b6000600660008481526020019081526020016000208054610efa906133b3565b80601f0160208091040260200160405190810160405280929190818152602001828054610f26906133b3565b8015610f735780601f10610f4857610100808354040283529160200191610f73565b820191906000526020600020905b815481529060010190602001808311610f5657829003601f168201915b505050505090506000610f84611bf3565b9050600081511415610f9a578192505050610fdd565b600082511115610fcf578082604051602001610fb7929190612c45565b60405160208183030381529060405292505050610fdd565b610fd884611c0a565b925050505b919050565b6000610fee6007611b89565b905060338110611033576040517f08c379a000000000000000000000000000000000000000000000000000000000815260040161102a9061301f565b60405180910390fd5b600061103e82610767565b9050600061104b83610bd5565b9050600061105884610d72565b9050600083838360405160200161107193929190612c69565b6040516020818303038152906040529050600061108d866108a5565b905060006008826009856040516020016110aa9493929190612c9a565b604051602081830303815290604052905060006110ef846110ca84611cb1565b6040516020016110db929190612d49565b604051602081830303815290604052611cb1565b90506000816040516020016111049190612db0565b60405160208183030381529060405290506111536040518060400160405280600e81526020017f0a2d2d2d2d2d2d2d2d2d2d2d2d2d0000000000000000000000000000000000008152506112d2565b61117b816040516020016111679190612ce3565b6040516020818303038152906040526112d2565b6111b96040518060400160405280600e81526020017f2d2d2d2d2d2d2d2d2d2d2d2d2d0a0000000000000000000000000000000000008152506112d2565b6111c3338a611e50565b6111cd8982611e6e565b6111d76007611ee2565b6111fa604051806060016040528060258152602001613c6d602591398a33611ef8565b7febb98688741ffa4c7589bf325de30cf7becb63de567842e1ccdb6cb949fdc82c338a60405161122b929190612e5b565b60405180910390a1505050505050505050565b6000600560008473ffffffffffffffffffffffffffffffffffffffff1673ffffffffffffffffffffffffffffffffffffffff16815260200190815260200160002060008373ffffffffffffffffffffffffffffffffffffffff1673ffffffffffffffffffffffffffffffffffffffff16815260200190815260200160002060009054906101000a900460ff16905092915050565b611368816040516024016112e69190612e9f565b6040516020818303038152906040527f41304fac000000000000000000000000000000000000000000000000000000007bffffffffffffffffffffffffffffffffffffffffffffffffffffffff19166020820180517bffffffffffffffffffffffffffffffffffffffffffffffffffffffff8381831617835250505050611f97565b50565b60007f01ffc9a7000000000000000000000000000000000000000000000000000000007bffffffffffffffffffffffffffffffffffffffffffffffffffffffff1916827bffffffffffffffffffffffffffffffffffffffffffffffffffffffff1916149050919050565b60008073ffffffffffffffffffffffffffffffffffffffff166002600084815260200190815260200160002060009054906101000a900473ffffffffffffffffffffffffffffffffffffffff1673ffffffffffffffffffffffffffffffffffffffff1614159050919050565b600033905090565b816004600083815260200190815260200160002060006101000a81548173ffffffffffffffffffffffffffffffffffffffff021916908373ffffffffffffffffffffffffffffffffffffffff160217905550808273ffffffffffffffffffffffffffffffffffffffff166114bc836109c3565b73ffffffffffffffffffffffffffffffffffffffff167f8c5be1e5ebec7d5bd14f71427d1e84f3dd0314c0f7b2291e5b200ac8c7c3b92560405160405180910390a45050565b600061150d826113d5565b61154c576040517f08c379a000000000000000000000000000000000000000000000000000000000815260040161154390612f7f565b60405180910390fd5b6000611557836109c3565b90508073ffffffffffffffffffffffffffffffffffffffff168473ffffffffffffffffffffffffffffffffffffffff1614806115c657508373ffffffffffffffffffffffffffffffffffffffff166115ae8461056a565b73ffffffffffffffffffffffffffffffffffffffff16145b806115d757506115d6818561123e565b5b91505092915050565b8273ffffffffffffffffffffffffffffffffffffffff16611600826109c3565b73ffffffffffffffffffffffffffffffffffffffff1614611656576040517f08c379a000000000000000000000000000000000000000000000000000000000815260040161164d9061309f565b60405180910390fd5b600073ffffffffffffffffffffffffffffffffffffffff168273ffffffffffffffffffffffffffffffffffffffff1614156116c6576040517f08c379a00000000000000000000000000000000000000000000000000000000081526004016116bd90612f3f565b60405180910390fd5b6116d1838383611fc0565b6116dc600082611449565b6001600360008573ffffffffffffffffffffffffffffffffffffffff1673ffffffffffffffffffffffffffffffffffffffff168152602001908152602001600020600082825461172c91906132c9565b925050819055506001600360008473ffffffffffffffffffffffffffffffffffffffff1673ffffffffffffffffffffffffffffffffffffffff168152602001908152602001600020600082825461178391906131e8565b92505081905550816002600083815260200190815260200160002060006101000a81548173ffffffffffffffffffffffffffffffffffffffff021916908373ffffffffffffffffffffffffffffffffffffffff160217905550808273ffffffffffffffffffffffffffffffffffffffff168473ffffffffffffffffffffffffffffffffffffffff167fddf252ad1be2c89b69c2b068fc378daa952ba7f163c4a11628f55a4df523b3ef60405160405180910390a4505050565b60606000821415611884576040518060400160405280600181526020017f300000000000000000000000000000000000000000000000000000000000000081525090506119e4565b600082905060005b600082146118b657808061189f90613416565b915050600a826118af919061323e565b915061188c565b60008167ffffffffffffffff8111156118f8577f4e487b7100000000000000000000000000000000000000000000000000000000600052604160045260246000fd5b6040519080825280601f01601f19166020018201604052801561192a5781602001600182028036833780820191505090505b5090505b600085146119dd5760018261194391906132c9565b9150600a85611952919061345f565b603061195e91906131e8565b60f81b81838151811061199a577f4e487b7100000000000000000000000000000000000000000000000000000000600052603260045260246000fd5b60200101907effffffffffffffffffffffffffffffffffffffffffffffffffffffffffffff1916908160001a905350600a856119d6919061323e565b945061192e565b8093505050505b919050565b6000816040516020016119fc9190612c2e565b6040516020818303038152906040528051906020012060001c9050919050565b8173ffffffffffffffffffffffffffffffffffffffff168373ffffffffffffffffffffffffffffffffffffffff161415611a8b576040517f08c379a0000000000000000000000000000000000000000000000000000000008152600401611a8290612f5f565b60405180910390fd5b80600560008573ffffffffffffffffffffffffffffffffffffffff1673ffffffffffffffffffffffffffffffffffffffff16815260200190815260200160002060008473ffffffffffffffffffffffffffffffffffffffff1673ffffffffffffffffffffffffffffffffffffffff16815260200190815260200160002060006101000a81548160ff0219169083151502179055508173ffffffffffffffffffffffffffffffffffffffff168373ffffffffffffffffffffffffffffffffffffffff167f17307eab39ab6107e8899845ad3d59bd9653f200f220920489ca2b5937696c3183604051611b7c9190612e84565b60405180910390a3505050565b600081600001549050919050565b611ba28484846115e0565b611bae84848484611fc5565b611bed576040517f08c379a0000000000000000000000000000000000000000000000000000000008152600401611be490612eff565b60405180910390fd5b50505050565b606060405180602001604052806000815250905090565b6060611c15826113d5565b611c54576040517f08c379a0000000000000000000000000000000000000000000000000000000008152600401611c4b906130bf565b60405180910390fd5b6000611c5e611bf3565b90506000815111611c7e5760405180602001604052806000815250611ca9565b80611c888461183c565b604051602001611c99929190612c45565b6040516020818303038152906040525b915050919050565b6060600082511415611cd457604051806020016040528060008152509050611e4b565b6000604051806060016040528060408152602001613c926040913990506000600360028551611d0391906131e8565b611d0d919061323e565b6004611d19919061326f565b90506000602082611d2a91906131e8565b67ffffffffffffffff811115611d69577f4e487b7100000000000000000000000000000000000000000000000000000000600052604160045260246000fd5b6040519080825280601f01601f191660200182016040528015611d9b5781602001600182028036833780820191505090505b509050818152600183018586518101602084015b81831015611e0a576003830192508251603f8160121c168501518253600182019150603f81600c1c168501518253600182019150603f8160061c168501518253600182019150603f8116850151825360018201915050611daf565b600389510660018114611e245760028114611e3457611e3f565b613d3d60f01b6002830352611e3f565b603d60f81b60018303525b50505050508093505050505b919050565b611e6a82826040518060200160405280600081525061215c565b5050565b611e77826113d5565b611eb6576040517f08c379a0000000000000000000000000000000000000000000000000000000008152600401611ead90612fff565b60405180910390fd5b80600660008481526020019081526020016000209080519060200190611edd929190612398565b505050565b6001816000016000828254019250508190555050565b611f92838383604051602401611f1093929190612ec1565b6040516020818303038152906040527fe3849f79000000000000000000000000000000000000000000000000000000007bffffffffffffffffffffffffffffffffffffffffffffffffffffffff19166020820180517bffffffffffffffffffffffffffffffffffffffffffffffffffffffff8381831617835250505050611f97565b505050565b60008151905060006a636f6e736f6c652e6c6f679050602083016000808483855afa5050505050565b505050565b6000611fe68473ffffffffffffffffffffffffffffffffffffffff166121b7565b1561214f578373ffffffffffffffffffffffffffffffffffffffff1663150b7a0261200f611441565b8786866040518563ffffffff1660e01b81526004016120319493929190612e0f565b602060405180830381600087803b15801561204b57600080fd5b505af192505050801561207c57506040513d601f19601f8201168201806040525081019061207991906126dc565b60015b6120ff573d80600081146120ac576040519150601f19603f3d011682016040523d82523d6000602084013e6120b1565b606091505b506000815114156120f7576040517f08c379a00000000000000000000000000000000000000000000000000000000081526004016120ee90612eff565b60405180910390fd5b805181602001fd5b63150b7a0260e01b7bffffffffffffffffffffffffffffffffffffffffffffffffffffffff1916817bffffffffffffffffffffffffffffffffffffffffffffffffffffffff191614915050612154565b600190505b949350505050565b61216683836121ca565b6121736000848484611fc5565b6121b2576040517f08c379a00000000000000000000000000000000000000000000000000000000081526004016121a990612eff565b60405180910390fd5b505050565b600080823b905060008111915050919050565b600073ffffffffffffffffffffffffffffffffffffffff168273ffffffffffffffffffffffffffffffffffffffff16141561223a576040517f08c379a00000000000000000000000000000000000000000000000000000000081526004016122319061303f565b60405180910390fd5b612243816113d5565b15612283576040517f08c379a000000000000000000000000000000000000000000000000000000000815260040161227a90612f1f565b60405180910390fd5b61228f60008383611fc0565b6001600360008473ffffffffffffffffffffffffffffffffffffffff1673ffffffffffffffffffffffffffffffffffffffff16815260200190815260200160002060008282546122df91906131e8565b92505081905550816002600083815260200190815260200160002060006101000a81548173ffffffffffffffffffffffffffffffffffffffff021916908373ffffffffffffffffffffffffffffffffffffffff160217905550808273ffffffffffffffffffffffffffffffffffffffff16600073ffffffffffffffffffffffffffffffffffffffff167fddf252ad1be2c89b69c2b068fc378daa952ba7f163c4a11628f55a4df523b3ef60405160405180910390a45050565b8280546123a4906133b3565b90600052602060002090601f0160209004810192826123c6576000855561240d565b82601f106123df57805160ff191683800117855561240d565b8280016001018555821561240d579182015b8281111561240c5782518255916020019190600101906123f1565b5b50905061241a919061241e565b5090565b5b8082111561243757600081600090555060010161241f565b5090565b600061244e6124498461315f565b61313a565b90508281526020810184848401111561246657600080fd5b612471848285613371565b509392505050565b60008135905061248881613c10565b92915050565b60008135905061249d81613c27565b92915050565b6000813590506124b281613c3e565b92915050565b6000815190506124c781613c3e565b92915050565b600082601f8301126124de57600080fd5b81356124ee84826020860161243b565b91505092915050565b60008135905061250681613c55565b92915050565b60006020828403121561251e57600080fd5b600061252c84828501612479565b91505092915050565b6000806040838503121561254857600080fd5b600061255685828601612479565b925050602061256785828601612479565b9150509250929050565b60008060006060848603121561258657600080fd5b600061259486828701612479565b93505060206125a586828701612479565b92505060406125b6868287016124f7565b9150509250925092565b600080600080608085870312156125d657600080fd5b60006125e487828801612479565b94505060206125f587828801612479565b9350506040612606878288016124f7565b925050606085013567ffffffffffffffff81111561262357600080fd5b61262f878288016124cd565b91505092959194509250565b6000806040838503121561264e57600080fd5b600061265c85828601612479565b925050602061266d8582860161248e565b9150509250929050565b6000806040838503121561268a57600080fd5b600061269885828601612479565b92505060206126a9858286016124f7565b9150509250929050565b6000602082840312156126c557600080fd5b60006126d3848285016124a3565b91505092915050565b6000602082840312156126ee57600080fd5b60006126fc848285016124b8565b91505092915050565b60006020828403121561271757600080fd5b6000612725848285016124f7565b91505092915050565b612737816132fd565b82525050565b6127468161330f565b82525050565b6000612757826131a5565b61276181856131bb565b9350612771818560208601613380565b61277a8161354c565b840191505092915050565b6000612790826131b0565b61279a81856131cc565b93506127aa818560208601613380565b6127b38161354c565b840191505092915050565b60006127c9826131b0565b6127d381856131dd565b93506127e3818560208601613380565b80840191505092915050565b600081546127fc816133b3565b61280681866131dd565b94506001821660008114612821576001811461283257612865565b60ff19831686528186019350612865565b61283b85613190565b60005b8381101561285d5781548189015260018201915060208101905061283e565b838801955050505b50505092915050565b600061287b6025836131dd565b91506128868261355d565b602582019050919050565b600061289e6032836131cc565b91506128a9826135ac565b604082019050919050565b60006128c1601c836131cc565b91506128cc826135fb565b602082019050919050565b60006128e4600a836131dd565b91506128ef82613624565b600a82019050919050565b60006129076024836131cc565b91506129128261364d565b604082019050919050565b600061292a6019836131cc565b91506129358261369c565b602082019050919050565b600061294d600b836131dd565b9150612958826136c5565b600b82019050919050565b6000612970602c836131cc565b915061297b826136ee565b604082019050919050565b6000612993600d836131dd565b915061299e8261373d565b600d82019050919050565b60006129b66038836131cc565b91506129c182613766565b604082019050919050565b60006129d9602a836131cc565b91506129e4826137b5565b604082019050919050565b60006129fc6029836131cc565b9150612a0782613804565b604082019050919050565b6000612a1f602e836131cc565b9150612a2a82613853565b604082019050919050565b6000612a42601e836131cc565b9150612a4d826138a2565b602082019050919050565b6000612a656002836131dd565b9150612a70826138cb565b600282019050919050565b6000612a886020836131cc565b9150612a93826138f4565b602082019050919050565b6000612aab6031836131cc565b9150612ab68261391d565b604082019050919050565b6000612ace602c836131cc565b9150612ad98261396c565b604082019050919050565b6000612af16029836131cc565b9150612afc826139bb565b604082019050919050565b6000612b14602f836131cc565b9150612b1f82613a0a565b604082019050919050565b6000612b37600a836131dd565b9150612b4282613a59565b600a82019050919050565b6000612b5a6021836131cc565b9150612b6582613a82565b604082019050919050565b6000612b7d600a836131dd565b9150612b8882613ad1565b600a82019050919050565b6000612ba0601d836131dd565b9150612bab82613afa565b601d82019050919050565b6000612bc36048836131dd565b9150612bce82613b23565b604882019050919050565b6000612be66031836131cc565b9150612bf182613b98565b604082019050919050565b6000612c096005836131dd565b9150612c1482613be7565b600582019050919050565b612c2881613367565b82525050565b6000612c3a82846127be565b915081905092915050565b6000612c5182856127be565b9150612c5d82846127be565b91508190509392505050565b6000612c7582866127be565b9150612c8182856127be565b9150612c8d82846127be565b9150819050949350505050565b6000612ca682876127ef565b9150612cb282866127be565b9150612cbe82856127ef565b9150612cca82846127be565b9150612cd582612986565b915081905095945050505050565b6000612cee8261286e565b9150612cfa82846127be565b915081905092915050565b6000612d10826128d7565b9150612d1c82846127be565b915081905092915050565b6000612d3282612940565b9150612d3e82846127be565b915081905092915050565b6000612d5482612b2a565b9150612d6082856127be565b9150612d6b82612bb6565b9150612d7782846127be565b9150612d8282612a58565b91508190509392505050565b6000612d9982612b70565b9150612da582846127be565b915081905092915050565b6000612dbb82612b93565b9150612dc782846127be565b915081905092915050565b6000612ddd82612bfc565b9150612de982846127be565b915081905092915050565b6000602082019050612e09600083018461272e565b92915050565b6000608082019050612e24600083018761272e565b612e31602083018661272e565b612e3e6040830185612c1f565b8181036060830152612e50818461274c565b905095945050505050565b6000604082019050612e70600083018561272e565b612e7d6020830184612c1f565b9392505050565b6000602082019050612e99600083018461273d565b92915050565b60006020820190508181036000830152612eb98184612785565b905092915050565b60006060820190508181036000830152612edb8186612785565b9050612eea6020830185612c1f565b612ef7604083018461272e565b949350505050565b60006020820190508181036000830152612f1881612891565b9050919050565b60006020820190508181036000830152612f38816128b4565b9050919050565b60006020820190508181036000830152612f58816128fa565b9050919050565b60006020820190508181036000830152612f788161291d565b9050919050565b60006020820190508181036000830152612f9881612963565b9050919050565b60006020820190508181036000830152612fb8816129a9565b9050919050565b60006020820190508181036000830152612fd8816129cc565b9050919050565b60006020820190508181036000830152612ff8816129ef565b9050919050565b6000602082019050818103600083015261301881612a12565b9050919050565b6000602082019050818103600083015261303881612a35565b9050919050565b6000602082019050818103600083015261305881612a7b565b9050919050565b6000602082019050818103600083015261307881612a9e565b9050919050565b6000602082019050818103600083015261309881612ac1565b9050919050565b600060208201905081810360008301526130b881612ae4565b9050919050565b600060208201905081810360008301526130d881612b07565b9050919050565b600060208201905081810360008301526130f881612b4d565b9050919050565b6000602082019050818103600083015261311881612bd9565b9050919050565b60006020820190506131346000830184612c1f565b92915050565b6000613144613155565b905061315082826133e5565b919050565b6000604051905090565b600067ffffffffffffffff82111561317a5761317961351d565b5b6131838261354c565b9050602081019050919050565b60008190508160005260206000209050919050565b600081519050919050565b600081519050919050565b600082825260208201905092915050565b600082825260208201905092915050565b600081905092915050565b60006131f382613367565b91506131fe83613367565b9250827fffffffffffffffffffffffffffffffffffffffffffffffffffffffffffffffff0382111561323357613232613490565b5b828201905092915050565b600061324982613367565b915061325483613367565b925082613264576132636134bf565b5b828204905092915050565b600061327a82613367565b915061328583613367565b9250817fffffffffffffffffffffffffffffffffffffffffffffffffffffffffffffffff04831182151516156132be576132bd613490565b5b828202905092915050565b60006132d482613367565b91506132df83613367565b9250828210156132f2576132f1613490565b5b828203905092915050565b600061330882613347565b9050919050565b60008115159050919050565b60007fffffffff0000000000000000000000000000000000000000000000000000000082169050919050565b600073ffffffffffffffffffffffffffffffffffffffff82169050919050565b6000819050919050565b82818337600083830152505050565b60005b8381101561339e578082015181840152602081019050613383565b838111156133ad576000848401525b50505050565b600060028204905060018216806133cb57607f821691505b602082108114156133df576133de6134ee565b5b50919050565b6133ee8261354c565b810181811067ffffffffffffffff8211171561340d5761340c61351d565b5b80604052505050565b600061342182613367565b91507fffffffffffffffffffffffffffffffffffffffffffffffffffffffffffffffff82141561345457613453613490565b5b600182019050919050565b600061346a82613367565b915061347583613367565b925082613485576134846134bf565b5b828206905092915050565b7f4e487b7100000000000000000000000000000000000000000000000000000000600052601160045260246000fd5b7f4e487b7100000000000000000000000000000000000000000000000000000000600052601260045260246000fd5b7f4e487b7100000000000000000000000000000000000000000000000000000000600052602260045260246000fd5b7f4e487b7100000000000000000000000000000000000000000000000000000000600052604160045260246000fd5b6000601f19601f8301169050919050565b7f68747470733a2f2f6e6674707265766965772e30786465762e636f6465732f3f60008201527f636f64653d000000000000000000000000000000000000000000000000000000602082015250565b7f4552433732313a207472616e7366657220746f206e6f6e20455243373231526560008201527f63656976657220696d706c656d656e7465720000000000000000000000000000602082015250565b7f4552433732313a20746f6b656e20616c7265616479206d696e74656400000000600082015250565b7f54484952445f574f524400000000000000000000000000000000000000000000600082015250565b7f4552433732313a207472616e7366657220746f20746865207a65726f2061646460008201527f7265737300000000000000000000000000000000000000000000000000000000602082015250565b7f4552433732313a20617070726f766520746f2063616c6c657200000000000000600082015250565b7f5345434f4e445f574f5244000000000000000000000000000000000000000000600082015250565b7f4552433732313a206f70657261746f7220717565727920666f72206e6f6e657860008201527f697374656e7420746f6b656e0000000000000000000000000000000000000000602082015250565b7f3c2f746578743e3c2f7376673e00000000000000000000000000000000000000600082015250565b7f4552433732313a20617070726f76652063616c6c6572206973206e6f74206f7760008201527f6e6572206e6f7220617070726f76656420666f7220616c6c0000000000000000602082015250565b7f4552433732313a2062616c616e636520717565727920666f7220746865207a6560008201527f726f206164647265737300000000000000000000000000000000000000000000602082015250565b7f4552433732313a206f776e657220717565727920666f72206e6f6e657869737460008201527f656e7420746f6b656e0000000000000000000000000000000000000000000000602082015250565b7f45524337323155524953746f726167653a2055524920736574206f66206e6f6e60008201527f6578697374656e7420746f6b656e000000000000000000000000000000000000602082015250565b7f4f6e6c79203530204e46547320746f206265206d696e746564206d6178210000600082015250565b7f227d000000000000000000000000000000000000000000000000000000000000600082015250565b7f4552433732313a206d696e7420746f20746865207a65726f2061646472657373600082015250565b7f45524337323155524953746f726167653a2055524920717565727920666f722060008201527f6e6f6e6578697374656e7420746f6b656e000000000000000000000000000000602082015250565b7f4552433732313a20617070726f76656420717565727920666f72206e6f6e657860008201527f697374656e7420746f6b656e0000000000000000000000000000000000000000602082015250565b7f4552433732313a207472616e73666572206f6620746f6b656e2074686174206960008201527f73206e6f74206f776e0000000000000000000000000000000000000000000000602082015250565b7f4552433732314d657461646174613a2055524920717565727920666f72206e6f60008201527f6e6578697374656e7420746f6b656e0000000000000000000000000000000000602082015250565b7f7b226e616d65223a202200000000000000000000000000000000000000000000600082015250565b7f4552433732313a20617070726f76616c20746f2063757272656e74206f776e6560008201527f7200000000000000000000000000000000000000000000000000000000000000602082015250565b7f46495253545f574f524400000000000000000000000000000000000000000000600082015250565b7f646174613a6170706c69636174696f6e2f6a736f6e3b6261736536342c000000600082015250565b7f222c20226465736372697074696f6e223a202256656e6920566964692056696360008201527f69222c2022696d616765223a2022646174613a696d6167652f7376672b786d6c60208201527f3b6261736536342c000000000000000000000000000000000000000000000000604082015250565b7f4552433732313a207472616e736665722063616c6c6572206973206e6f74206f60008201527f776e6572206e6f7220617070726f766564000000000000000000000000000000602082015250565b7f434f4c4f52000000000000000000000000000000000000000000000000000000600082015250565b613c19816132fd565b8114613c2457600080fd5b50565b613c308161330f565b8114613c3b57600080fd5b50565b613c478161331b565b8114613c5257600080fd5b50565b613c5e81613367565b8114613c6957600080fd5b5056fe616e204e465420772f20494420257320686173206265656e206d696e74656420746f2025734142434445464748494a4b4c4d4e4f505152535455565758595a6162636465666768696a6b6c6d6e6f707172737475767778797a303132333435363738392b2fa264697066735822122002b31e1d4b68d18b4605d2024f0c42b7d09fd93510813c379db660e955e334a964736f6c634300080400333c73766720786d6c6e733d27687474703a2f2f7777772e77332e6f72672f323030302f73766727207072657365727665417370656374526174696f3d27784d696e594d696e206d656574272076696577426f783d273020302033353020333530273e3c7374796c653e2e62617365207b2066696c6c3a2077686974653b20666f6e742d66616d696c793a2073657269663b20666f6e742d73697a653a20323470783b207d3c2f7374796c653e3c726563742077696474683d273130302527206865696768743d2731303025272066696c6c3d27272f3e3c7465787420783d273530252720793d273530252720636c6173733d27626173652720646f6d696e616e742d626173656c696e653d276d6964646c652720746578742d616e63686f723d276d6964646c65273e",
	"linkReferences": {},
	"deployedLinkReferences": {}
}